:020000040000FA
:0600000090EF01F0120078
:020006000000F8
:08000800D9CFE6FFE1CFD9FFDB
:10001000180EE126D9CFE9FFDACFEAFF200EEE6E07
:10002000570EEE6E650EEE6E6C0EEE6E630EEE6E9D
:100030006F0EEE6E6D0EEE6E650EEE6EEE6AD950C0
:10004000090FE96EDACFEAFF200EEE6EEE6E540E67
:10005000EE6E6F0EEE6E200EEE6E740EEE6E680E8D
:10006000EE6E650EEE6E200EEE6E770EEE6E6F0E7D
:10007000EE6E720EEE6E6C0EEE6E640EEE6EEE6A4C
:100080000F0EC16E956A966A62D8320EE66EE66A07
:1000900023D8E552E552D9CF8AF0DACF8BF0AAD82F
:1000A0000F0EE66EE66A18D8E552E552C00EE66E0F
:1000B00077D8E5520001D950090F8A6FDACF8BF05B
:1000C00099D8FFD7180EE15C02E2E16AE552E16ED1
:1000D000E552E7CFD9FF1200D9CFE6FFE1CFD9FF34
:1000E000040EE126DE6ADD6ADECF00F0DDCF01F02E
:1000F000FD0EDBCF02F0FE0EDBCF03F00250005C02
:10010000035001581AE2020EDB6A030EDB6A020E8C
:10011000DBCF00F0030EDBCF01F0C60E005C020E59
:10012000015806E2020EDB2A030E01E3DB2AEFD7B9
:10013000DF2A010E01E3DB2AD7D7040EE15C02E2DD
:10014000E16AE552E16EE552E7CFD9FF1200380EC1
:10015000E66E26D8E5520F0EE66EE66ABDDFE55282
:10016000E552010EE66E1CD8E5520F0EE66EE66A09
:10017000B3DFE552E5520C0EE66E12D8E5520F0ED3
:10018000E66EE66AA9DFE552E552800EE66E08D813
:10019000E5520F0EE66EE66A9FDFE552E552120069
:1001A000D9CFE6FFE1CFD9FFFE0EDB50836E8490FE
:1001B000849284840F0EE66EE66A8EDFE552E55285
:1001C0008494E552E7CFD9FF1200D9CFE6FFE1CF03
:1001D000D9FFFE0EDB50836E8480849284840F0EE0
:1001E000E66EE66A79DFE552E5528494E552E7CFA0
:1001F000D9FF1200D9CFE6FFE1CFD9FF020EE126E9
:10020000DE6ADD6ADE5000018A250F01E96EDD50ED
:1002100000018B210F01EA6EEF5019E0DE50000162
:100220008A250F01E96EDD5000018B210F01EA6E76
:10023000EF50E66ECADFE5520F0EE66EE66A4CDF5F
:10024000E552E552DF2A010E01E3DB2ADBD7020E7D
:10025000E15C02E2E16AE552E16EE552E7CFD9FFE7
:0202600012008A
:0E026200060EF66E000EF76E000EF86E00012E
:100270000900F550856F0900F550866F03E1856729
:1002800001D03DD00900F550806F0900F550816F15
:100290000900F550826F09000900F550E96E090068
:1002A000F550EA6E090009000900F550836F090056
:1002B000F550846F09000900F6CF87F0F7CF88F07A
:1002C000F8CF89F080C0F6FF81C0F7FF82C0F8FF49
:1002D0000001835302E1845307E00900F550EE6EFC
:1002E0008307F8E28407F9D787C0F6FF88C0F7FFD5
:1002F00089C0F8FF00018507000E865BBFD712009A
:10030000000EF36E00EE00F0060E01D81200EA6057
:1003100002D0EE6AFCD7F350E9601200EE6AFCD717
:1003200015EE00F025EE00F0F86A059C31EC01F0C6
:0C0330009EEC01F004EC00F0FBD7120082
:02033C001200AD
:020000040030CA
:0100010002FC
:010003001EDE
:010005008179
:010006008178
:00000001FF
