:020000040000FA
:06000000C0EF00F0120049
:020006000000F8
:08000800F19E0F0EC16E926A19
:10001000936A946A956A966AAA0E806E816E826E61
:10002000836E846EC80EE66EE66A10D8E552E5521D
:10003000550E806E816E826E836E846EC80EE66E83
:10004000E66A04D8E552E552E7D71200D9CFE6FFB9
:10005000E1CFD9FF040EE126DE6ADD6ADECF00F0D3
:10006000DDCF01F0FD0EDBCF02F0FE0EDBCF03F0A3
:100070000250005C035001581AE2020EDB6A030EC4
:10008000DB6A020EDBCF00F0030EDBCF01F0C60E01
:10009000005C020E015806E2020EDB2A030E01E3A9
:1000A000DB2AEFD7DF2A010E01E3DB2AD7D7040EC4
:1000B000E15C02E2E16AE552E16EE552E7CFD9FF89
:0200C00012002C
:0E00C200060EF66E000EF76E000EF86E0001D0
:1000D0000900F550856F0900F550866F03E18567CB
:1000E00001D03DD00900F550806F0900F550816FB7
:1000F0000900F550826F09000900F550E96E09000A
:10010000F550EA6E090009000900F550836F0900F7
:10011000F550846F09000900F6CF87F0F7CF88F01B
:10012000F8CF89F080C0F6FF81C0F7FF82C0F8FFEA
:100130000001835302E1845307E00900F550EE6E9D
:100140008307F8E28407F9D787C0F6FF88C0F7FF76
:1001500089C0F8FF00018507000E865BBFD712003B
:10016000000EF36E00EE00F0060E01D81200EA60F9
:1001700002D0EE6AFCD7F350E9601200EE6AFCD7B9
:1001800015EE00F025EE00F0F86A059C61EC00F039
:0C019000CEEC00F004EC00F0FBD71200F5
:02019C0012004F
:020000040030CA
:0100010002FC
:010003001EDE
:010005008179
:010006008178
:00000001FF
