:020000040000FA
:0600000076EF02F0120091
:020006000000F8
:08000800D9CFE6FFE1CFD9FFDB
:10001000280EE126D9CFE9FFDACFEAFF4C0EEE6ECB
:100020004D0EEE6E330EEE6E350EEE6E200EEE6E53
:10003000490EEE6E6E0EEE6E740EEE6E650EEE6E88
:10004000720EEE6E660EEE6E610EEE6E630EEE6E6C
:10005000650EEE6EEE6AD9500F0FE96EDACFEAFF49
:10006000540EEE6E650EEE6E6D0EEE6E700EEE6E52
:100070002E0EEE6E3A0EEE6EEE6ADF0EF36E160E7A
:10008000F3CFDBFF430EF36E170EF3CFDBFF180E3B
:10009000DB6A190EDB6A1A0EDB6A0F0EC16E956AF7
:1000A000966AAFD820D9D9CFE6FFDACFE6FF6ED96E
:1000B000E552E552C00EE66E3FD9E552D9500F0F1A
:1000C000E66E000EDA20E66E61D9E552E552A1D85F
:1000D000A2D81F0EF3CFDBFF200EF4CFDBFF020E02
:1000E000106E116A1F0EDBCF06F0200EDBCF07F07B
:1000F00010C00BF011C00CF050EC02F01F0E06C047
:10010000DBFF200E07C0DBFFC70EE66E15D9E552F8
:100110001F0EDB50E76E210EE7CFDBFF640E106E83
:1001200010C00CF0210EDBCF07F084EC02F01A0EA9
:1001300007C0DBFFDB50300FE76E1C0EE7CFDBFFA5
:10014000DBCFE6FF0ED9E552640E116E11C00CF044
:10015000210EDBCF07F084EC02F003C010F00A0E92
:10016000126E12C00CF010C007F084EC02F01A0EF0
:1001700007C0DBFFDB50300FE76E1D0EE7CFDBFF64
:10018000DBCFE6FFEED8E5521F0EDBCF10F0200EDE
:10019000DBCF11F00A0E0B6E0C6A10C006F011C016
:1001A00007F050EC02F002C010F003C011F01A0E7C
:1001B00010C0DBFFDB501E0FE76E1E0EE7CFDBFF2C
:1001C0001A0EDB50300FE66ECCD8E552D950160F20
:1001D000E66E000EDA20E66ED9D8E552E5522C0E16
:1001E000E66E010EE66E44D8E552E55270D7280E51
:1001F000E15C02E2E16AE552E16EE552E7CFD9FF48
:100200001200040EC26E0E0EC16E8E0EC06EC28043
:100210001200C2821200D9CFE6FFE1CFD9FF020E51
:10022000E126DE6ADD6AC2B2FED7C350DE6EDD6A49
:10023000C450106E10C011F0106AD9CFE9FFDACFA8
:10024000EAFF1050EE121150ED12DECF10F0DDCFAC
:1002500011F010C0F3FF11C0F4FF020EE15C03E2E5
:1002600000D0E16AE552E16EE552E7CFD9FF120016
:10027000D9CFE6FFE1CFD9FF040EE126DE6ADD6AC1
:10028000DECF10F0DDCF11F0FD0EDBCF12F0FE0E51
:10029000DBCF13F01250105C135011581AE2020E0B
:1002A000DB6A030EDB6A020EDBCF10F0030EDBCF3E
:1002B00011F0130E105C010E115806E2020EDB2A3B
:1002C000030E01E3DB2AEFD7DF2A010E01E3DB2A6D
:1002D000D7D7040EE15C02E2E16AE552E16EE55235
:1002E000E7CFD9FF1200380EE66E26D8E5520F0E82
:1002F000E66EE66ABDDFE552E552010EE66E1CD8F9
:10030000E5520F0EE66EE66AB3DFE552E5520C0EDB
:10031000E66E12D8E5520F0EE66EE66AA9DFE552E8
:10032000E552800EE66E08D8E5520F0EE66EE66ADC
:100330009FDFE552E5521200D9CFE6FFE1CFD9FFAA
:10034000FE0EDB50836E8490849284840F0EE66EE2
:10035000E66A8EDFE552E5528494E552E7CFD9FF95
:100360001200D9CFE6FFE1CFD9FFFE0EDB50836E3E
:100370008480849284840F0EE66EE66A79DFE5520B
:10038000E5528494E552E7CFD9FF1200D9CFE6FFBA
:10039000E1CFD9FF020EE126DE6ADD6AFD0EDBCF7A
:1003A00010F0FE0EDBCF11F0DE501024E96EDD50B0
:1003B0001120EA6EEF501BE0FD0EDBCF10F0FE0EB9
:1003C000DBCF11F0DE501024E96EDD501120EA6E13
:1003D000EF50E66EC6DFE5520F0EE66EE66A48DFC6
:1003E000E552E552DF2A010E01E3DB2AD7D7020EE0
:1003F000E15C02E2E16AE552E16EE552E7CFD9FF46
:020400001200E8
:0E040200060EF66E000EF76E000EF86E00018C
:100410000900F550856F0900F550866F03E1856787
:1004200001D03DD00900F550806F0900F550816F73
:100430000900F550826F09000900F550E96E0900C6
:10044000F550EA6E090009000900F550836F0900B4
:10045000F550846F09000900F6CF87F0F7CF88F0D8
:10046000F8CF89F080C0F6FF81C0F7FF82C0F8FFA7
:100470000001835302E1845307E00900F550EE6E5A
:100480008307F8E28407F9D787C0F6FF88C0F7FF33
:1004900089C0F8FF00018507000E865BBFD71200F8
:1004A000036A026A100EE76ED890063607360236E7
:1004B00003360B50025C0C50035805E30B50025EF0
:0C04C0000C50035A062AE72EF0D7120059
:0404CC00000EF36EBD
:1004D00000EE00F0060E01D81200EA6002D0EE6ACB
:0C04E000FCD7F350E9601200EE6AFCD774
:0404EC0015EE00F019
:1004F00025EE00F0F86A0F9C01EC02F092EC02F09D
:0805000004EC00F0FBD712002F
:08050800036A080EE76ED890AB
:10051000073603360C50035C02E3036E072AE72E0E
:04052000F7D71200F7
:020524001200C3
:020000040030CA
:0100010002FC
:010003001EDE
:010005008179
:010006008178
:00000001FF
